{"abi":[{"type":"constructor","inputs":[],"stateMutability":"nonpayable"},{"type":"function","name":"approve","inputs":[{"name":"to","type":"address","internalType":"address"},{"name":"tokenId","type":"uint256","internalType":"uint256"}],"outputs":[],"stateMutability":"nonpayable"},{"type":"function","name":"balanceOf","inputs":[{"name":"owner","type":"address","internalType":"address"}],"outputs":[{"name":"","type":"uint256","internalType":"uint256"}],"stateMutability":"view"},{"type":"function","name":"breed","inputs":[{"name":"parent1","type":"uint256","internalType":"uint256"},{"name":"parent2","type":"uint256","internalType":"uint256"}],"outputs":[],"stateMutability":"payable"},{"type":"function","name":"breedingFee","inputs":[],"outputs":[{"name":"","type":"uint256","internalType":"uint256"}],"stateMutability":"view"},{"type":"function","name":"exists","inputs":[{"name":"tokenId","type":"uint256","internalType":"uint256"}],"outputs":[{"name":"","type":"bool","internalType":"bool"}],"stateMutability":"view"},{"type":"function","name":"genes","inputs":[{"name":"","type":"uint256","internalType":"uint256"}],"outputs":[{"name":"","type":"uint256","internalType":"uint256"}],"stateMutability":"view"},{"type":"function","name":"getApproved","inputs":[{"name":"tokenId","type":"uint256","internalType":"uint256"}],"outputs":[{"name":"","type":"address","internalType":"address"}],"stateMutability":"view"},{"type":"function","name":"getGene","inputs":[{"name":"tokenId","type":"uint256","internalType":"uint256"}],"outputs":[{"name":"","type":"uint256","internalType":"uint256"}],"stateMutability":"view"},{"type":"function","name":"getPalette","inputs":[],"outputs":[{"name":"","type":"string[16]","internalType":"string[16]"}],"stateMutability":"view"},{"type":"function","name":"isApprovedForAll","inputs":[{"name":"owner","type":"address","internalType":"address"},{"name":"operator","type":"address","internalType":"address"}],"outputs":[{"name":"","type":"bool","internalType":"bool"}],"stateMutability":"view"},{"type":"function","name":"name","inputs":[],"outputs":[{"name":"","type":"string","internalType":"string"}],"stateMutability":"view"},{"type":"function","name":"owner","inputs":[],"outputs":[{"name":"","type":"address","internalType":"address"}],"stateMutability":"view"},{"type":"function","name":"ownerMint","inputs":[{"name":"to","type":"address","internalType":"address"}],"outputs":[],"stateMutability":"nonpayable"},{"type":"function","name":"ownerOf","inputs":[{"name":"tokenId","type":"uint256","internalType":"uint256"}],"outputs":[{"name":"","type":"address","internalType":"address"}],"stateMutability":"view"},{"type":"function","name":"renounceOwnership","inputs":[],"outputs":[],"stateMutability":"nonpayable"},{"type":"function","name":"safeTransferFrom","inputs":[{"name":"from","type":"address","internalType":"address"},{"name":"to","type":"address","internalType":"address"},{"name":"tokenId","type":"uint256","internalType":"uint256"}],"outputs":[],"stateMutability":"nonpayable"},{"type":"function","name":"safeTransferFrom","inputs":[{"name":"from","type":"address","internalType":"address"},{"name":"to","type":"address","internalType":"address"},{"name":"tokenId","type":"uint256","internalType":"uint256"},{"name":"data","type":"bytes","internalType":"bytes"}],"outputs":[],"stateMutability":"nonpayable"},{"type":"function","name":"setApprovalForAll","inputs":[{"name":"operator","type":"address","internalType":"address"},{"name":"approved","type":"bool","internalType":"bool"}],"outputs":[],"stateMutability":"nonpayable"},{"type":"function","name":"setBreedingFee","inputs":[{"name":"newFee","type":"uint256","internalType":"uint256"}],"outputs":[],"stateMutability":"nonpayable"},{"type":"function","name":"supportsInterface","inputs":[{"name":"interfaceId","type":"bytes4","internalType":"bytes4"}],"outputs":[{"name":"","type":"bool","internalType":"bool"}],"stateMutability":"view"},{"type":"function","name":"symbol","inputs":[],"outputs":[{"name":"","type":"string","internalType":"string"}],"stateMutability":"view"},{"type":"function","name":"tokenURI","inputs":[{"name":"tokenId","type":"uint256","internalType":"uint256"}],"outputs":[{"name":"","type":"string","internalType":"string"}],"stateMutability":"view"},{"type":"function","name":"totalSupply","inputs":[],"outputs":[{"name":"","type":"uint256","internalType":"uint256"}],"stateMutability":"view"},{"type":"function","name":"transferFrom","inputs":[{"name":"from","type":"address","internalType":"address"},{"name":"to","type":"address","internalType":"address"},{"name":"tokenId","type":"uint256","internalType":"uint256"}],"outputs":[],"stateMutability":"nonpayable"},{"type":"function","name":"transferOwnership","inputs":[{"name":"newOwner","type":"address","internalType":"address"}],"outputs":[],"stateMutability":"nonpayable"},{"type":"function","name":"withdraw","inputs":[],"outputs":[],"stateMutability":"nonpayable"},{"type":"event","name":"Approval","inputs":[{"name":"owner","type":"address","indexed":true,"internalType":"address"},{"name":"approved","type":"address","indexed":true,"internalType":"address"},{"name":"tokenId","type":"uint256","indexed":true,"internalType":"uint256"}],"anonymous":false},{"type":"event","name":"ApprovalForAll","inputs":[{"name":"owner","type":"address","indexed":true,"internalType":"address"},{"name":"operator","type":"address","indexed":true,"internalType":"address"},{"name":"approved","type":"bool","indexed":false,"internalType":"bool"}],"anonymous":false},{"type":"event","name":"CatMinted","inputs":[{"name":"tokenId","type":"uint256","indexed":true,"internalType":"uint256"},{"name":"gene","type":"uint256","indexed":false,"internalType":"uint256"},{"name":"to","type":"address","indexed":true,"internalType":"address"}],"anonymous":false},{"type":"event","name":"NewCatBorn","inputs":[{"name":"tokenId","type":"uint256","indexed":true,"internalType":"uint256"},{"name":"parent1","type":"uint256","indexed":true,"internalType":"uint256"},{"name":"parent2","type":"uint256","indexed":true,"internalType":"uint256"},{"name":"gene","type":"uint256","indexed":false,"internalType":"uint256"},{"name":"owner","type":"address","indexed":false,"internalType":"address"}],"anonymous":false},{"type":"event","name":"OwnershipTransferred","inputs":[{"name":"previousOwner","type":"address","indexed":true,"internalType":"address"},{"name":"newOwner","type":"address","indexed":true,"internalType":"address"}],"anonymous":false},{"type":"event","name":"Transfer","inputs":[{"name":"from","type":"address","indexed":true,"internalType":"address"},{"name":"to","type":"address","indexed":true,"internalType":"address"},{"name":"tokenId","type":"uint256","indexed":true,"internalType":"uint256"}],"anonymous":false}],"bytecode":{"object":"0x66038d7ea4c680006009556007610280818152660233030303030360cc1b6102a05260809081526102c08281526611a3232323232360c91b6102e05260a052610300828152660234646303030360cc1b6103205260c052610340828152660233030464630360cc1b6103605260e052610380828152661198181818232360c91b6103a052610100526103c0828152660234646464630360cc1b6103e052610120526104008281526611a3231818232360c91b6104205261014052610440828152661198182323232360c91b6104605261016052610480828152660233830303030360cc1b6104a052610180526104c0828152660233030383030360cc1b6104e0526101a052610500828152660233030303038360cc1b610520526101c052610540828152660233830383030360cc1b610560526101e052610580828152660233830303038360cc1b6105a052610200526105c0828152660233030383038360cc1b6105e05261022052610600828152660234330433043360cc1b6106205261024052610680604052610640918252660233830383038360cc1b6106605261026091909152620001b390600a9060106200058f565b50348015620001c157600080fd5b5060405180604001604052806008815260200167141a5e195b10d85d60c21b815250604051806040016040528060048152602001631410d05560e21b8152508160009081620002119190620006fe565b506001620002208282620006fe565b5050506200023d620002376200026d60201b60201c565b62000271565b62000254336200024e6000620002c3565b62000371565b5062000266336200024e6001620002c3565b5062000816565b3390565b600680546001600160a01b038381166001600160a01b0319831681179093556040519116919082907f8be0079c531659141344cd1fd0a4f28419497f9722a3daafe3b4186f6b6457e090600090a35050565b60008042443385604051602001620003019493929190938452602084019290925260601b6001600160601b0319166040830152605482015260740190565b6040516020818303038152906040528051906020012060001c90506000805b60408110156200036957600062000339826004620007e0565b84901c600f1690506200034e826004620007e0565b1b9190911790806200036081620007fa565b91505062000320565b509392505050565b6000806200037e60075490565b90506200038f600780546001019055565b6000818152600860205260409020839055620003ac8482620003fa565b836001600160a01b0316817f5c82644b2ffc94e3f1c34c87757b27375692fdf4bf2389eb361bbe28bc2c8de585604051620003e991815260200190565b60405180910390a390505b92915050565b6001600160a01b038216620004565760405162461bcd60e51b815260206004820181905260248201527f4552433732313a206d696e7420746f20746865207a65726f206164647265737360448201526064015b60405180910390fd5b6000818152600260205260409020546001600160a01b031615620004bd5760405162461bcd60e51b815260206004820152601c60248201527f4552433732313a20746f6b656e20616c7265616479206d696e7465640000000060448201526064016200044d565b6000818152600260205260409020546001600160a01b031615620005245760405162461bcd60e51b815260206004820152601c60248201527f4552433732313a20746f6b656e20616c7265616479206d696e7465640000000060448201526064016200044d565b6001600160a01b038216600081815260036020908152604080832080546001019055848352600290915280822080546001600160a01b0319168417905551839291907fddf252ad1be2c89b69c2b068fc378daa952ba7f163c4a11628f55a4df523b3ef908290a45050565b8260108101928215620005cd579160200282015b82811115620005cd5782518290620005bc9082620006fe565b5091602001919060010190620005a3565b50620005db929150620005df565b5090565b80821115620005db576000620005f6828262000600565b50600101620005df565b5080546200060e906200066f565b6000825580601f106200061f575050565b601f0160209004906000526020600020908101906200063f919062000642565b50565b5b80821115620005db576000815560010162000643565b634e487b7160e01b600052604160045260246000fd5b600181811c908216806200068457607f821691505b602082108103620006a557634e487b7160e01b600052602260045260246000fd5b50919050565b601f821115620006f957600081815260208120601f850160051c81016020861015620006d45750805b601f850160051c820191505b81811015620006f557828155600101620006e0565b5050505b505050565b81516001600160401b038111156200071a576200071a62000659565b62000732816200072b84546200066f565b84620006ab565b602080601f8311600181146200076a5760008415620007515750858301515b600019600386901b1c1916600185901b178555620006f5565b600085815260208120601f198616915b828110156200079b578886015182559484019460019091019084016200077a565b5085821015620007ba5787850151600019600388901b60f8161c191681555b5050505050600190811b01905550565b634e487b7160e01b600052601160045260246000fd5b8082028115828204841417620003f457620003f4620007ca565b6000600182016200080f576200080f620007ca565b5060010190565b611de080620008266000396000f3fe6080604052600436106101815760003560e01c80636352211e116100d1578063ab1aa1c51161008a578063c87b56dd11610064578063c87b56dd1461045c578063d9ecad7b1461047c578063e985e9c51461048f578063f2fde38b146104af57600080fd5b8063ab1aa1c5146103f9578063b88d4fde14610426578063c69cd09d1461044657600080fd5b80636352211e1461035157806370a0823114610371578063715018a6146103915780638da5cb5b146103a657806395d89b41146103c4578063a22cb465146103d957600080fd5b80631e3bcc8e1161013e5780633dda6452116101185780633dda6452146102cf57806342842e0e146102f15780634574dea5146103115780634f558e791461033157600080fd5b80631e3bcc8e1461027a57806323b872dd1461029a5780633ccfd60b146102ba57600080fd5b806301ffc9a71461018657806306fdde03146101bb578063081812fc146101dd578063095ea7b3146102155780630c5579371461023757806318160ddd14610265575b600080fd5b34801561019257600080fd5b506101a66101a1366004611894565b6104cf565b60405190151581526020015b60405180910390f35b3480156101c757600080fd5b506101d0610521565b6040516101b29190611901565b3480156101e957600080fd5b506101fd6101f8366004611914565b6105b3565b6040516001600160a01b0390911681526020016101b2565b34801561022157600080fd5b50610235610230366004611949565b6105da565b005b34801561024357600080fd5b50610257610252366004611914565b6106f4565b6040519081526020016101b2565b34801561027157600080fd5b50610257610753565b34801561028657600080fd5b50610235610295366004611973565b610763565b3480156102a657600080fd5b506102356102b536600461198e565b61078a565b3480156102c657600080fd5b506102356107bb565b3480156102db57600080fd5b506102e46108b4565b6040516101b291906119ca565b3480156102fd57600080fd5b5061023561030c36600461198e565b61097c565b34801561031d57600080fd5b5061023561032c366004611914565b610997565b34801561033d57600080fd5b506101a661034c366004611914565b6109a4565b34801561035d57600080fd5b506101fd61036c366004611914565b6109af565b34801561037d57600080fd5b5061025761038c366004611973565b610a0f565b34801561039d57600080fd5b50610235610a95565b3480156103b257600080fd5b506006546001600160a01b03166101fd565b3480156103d057600080fd5b506101d0610aa9565b3480156103e557600080fd5b506102356103f4366004611a18565b610ab8565b34801561040557600080fd5b50610257610414366004611914565b60086020526000908152604090205481565b34801561043257600080fd5b50610235610441366004611a6a565b610ac3565b34801561045257600080fd5b5061025760095481565b34801561046857600080fd5b506101d0610477366004611914565b610afb565b61023561048a366004611b46565b610b6f565b34801561049b57600080fd5b506101a66104aa366004611b68565b610d6f565b3480156104bb57600080fd5b506102356104ca366004611973565b610d9d565b60006001600160e01b031982166380ac58cd60e01b148061050057506001600160e01b03198216635b5e139f60e01b145b8061051b57506301ffc9a760e01b6001600160e01b03198316145b92915050565b60606000805461053090611b9b565b80601f016020809104026020016040519081016040528092919081815260200182805461055c90611b9b565b80156105a95780601f1061057e576101008083540402835291602001916105a9565b820191906000526020600020905b81548152906001019060200180831161058c57829003601f168201915b5050505050905090565b60006105be82610e16565b506000908152600460205260409020546001600160a01b031690565b60006105e5826109af565b9050806001600160a01b0316836001600160a01b0316036106575760405162461bcd60e51b815260206004820152602160248201527f4552433732313a20617070726f76616c20746f2063757272656e74206f776e656044820152603960f91b60648201526084015b60405180910390fd5b336001600160a01b038216148061067357506106738133610d6f565b6106e55760405162461bcd60e51b815260206004820152603d60248201527f4552433732313a20617070726f76652063616c6c6572206973206e6f7420746f60448201527f6b656e206f776e6572206f7220617070726f76656420666f7220616c6c000000606482015260840161064e565b6106ef8383610e66565b505050565b60006106ff82610ed4565b6107405760405162461bcd60e51b815260206004820152601260248201527110d85d08191bd95cc81b9bdd08195e1a5cdd60721b604482015260640161064e565b5060009081526008602052604090205490565b600061075e60075490565b905090565b61076b610ef1565b600061077e61077960075490565b610f4b565b90506106ef8282610ff5565b6107943382611077565b6107b05760405162461bcd60e51b815260040161064e90611bd5565b6106ef8383836110d6565b6107c3610ef1565b47806108085760405162461bcd60e51b81526020600482015260146024820152734e6f2066756e647320746f20776974686472617760601b604482015260640161064e565b600061081c6006546001600160a01b031690565b6001600160a01b03168260405160006040518083038185875af1925050503d8060008114610866576040519150601f19603f3d011682016040523d82523d6000602084013e61086b565b606091505b50509050806108b05760405162461bcd60e51b815260206004820152601160248201527015da5d1a191c985dd85b0819985a5b1959607a1b604482015260640161064e565b5050565b6108bc611856565b604080516102008101909152600a60106000835b828210156109735783820180546108e690611b9b565b80601f016020809104026020016040519081016040528092919081815260200182805461091290611b9b565b801561095f5780601f106109345761010080835404028352916020019161095f565b820191906000526020600020905b81548152906001019060200180831161094257829003601f168201915b5050505050815260200190600101906108d0565b50505050905090565b6106ef83838360405180602001604052806000815250610ac3565b61099f610ef1565b600955565b600061051b82610ed4565b6000818152600260205260408120546001600160a01b03168061051b5760405162461bcd60e51b8152602060048201526018602482015277115490cdcc8c4e881a5b9d985b1a59081d1bdad95b88125160421b604482015260640161064e565b60006001600160a01b038216610a795760405162461bcd60e51b815260206004820152602960248201527f4552433732313a2061646472657373207a65726f206973206e6f7420612076616044820152683634b21037bbb732b960b91b606482015260840161064e565b506001600160a01b031660009081526003602052604090205490565b610a9d610ef1565b610aa7600061123a565b565b60606001805461053090611b9b565b6108b033838361128c565b610acd3383611077565b610ae95760405162461bcd60e51b815260040161064e90611bd5565b610af58484848461135a565b50505050565b6060610b0682610e16565b6000610b1d60408051602081019091526000815290565b90506000815111610b3d5760405180602001604052806000815250610b68565b80610b478461138d565b604051602001610b58929190611c22565b6040516020818303038152906040525b9392505050565b600954341015610bc15760405162461bcd60e51b815260206004820152601960248201527f496e73756666696369656e74206272656564696e672066656500000000000000604482015260640161064e565b610bca82610ed4565b8015610bda5750610bda81610ed4565b610c265760405162461bcd60e51b815260206004820152601860248201527f506172656e74206361747320646f206e6f742065786973740000000000000000604482015260640161064e565b808203610c755760405162461bcd60e51b815260206004820152601860248201527f43616e6e6f74206272656564207769746820697473656c660000000000000000604482015260640161064e565b33610c7f836109af565b6001600160a01b03161480610ca4575033610c99826109af565b6001600160a01b0316145b610cf05760405162461bcd60e51b815260206004820181905260248201527f4d757374206f776e206174206c65617374206f6e6520706172656e7420636174604482015260640161064e565b6000828152600860205260408082205483835290822054610d1a9190610d1560075490565b611420565b90506000610d283383610ff5565b604080518481523360208201529192508491869184917fdf9cf9bcc703a434adaf6fec1e602c6519582a5d4b3aedee5e938c90d2f11073910160405180910390a450505050565b6001600160a01b03918216600090815260056020908152604080832093909416825291909152205460ff1690565b610da5610ef1565b6001600160a01b038116610e0a5760405162461bcd60e51b815260206004820152602660248201527f4f776e61626c653a206e6577206f776e657220697320746865207a65726f206160448201526564647265737360d01b606482015260840161064e565b610e138161123a565b50565b610e1f81610ed4565b610e135760405162461bcd60e51b8152602060048201526018602482015277115490cdcc8c4e881a5b9d985b1a59081d1bdad95b88125160421b604482015260640161064e565b600081815260046020526040902080546001600160a01b0319166001600160a01b0384169081179091558190610e9b826109af565b6001600160a01b03167f8c5be1e5ebec7d5bd14f71427d1e84f3dd0314c0f7b2291e5b200ac8c7c3b92560405160405180910390a45050565b6000908152600260205260409020546001600160a01b0316151590565b6006546001600160a01b03163314610aa75760405162461bcd60e51b815260206004820181905260248201527f4f776e61626c653a2063616c6c6572206973206e6f7420746865206f776e6572604482015260640161064e565b60008042443385604051602001610f8d9493929190938452602084019290925260601b6bffffffffffffffffffffffff19166040830152605482015260740190565b6040516020818303038152906040528051906020012060001c90506000805b6040811015610fed576000610fc2826004611c67565b84901c600f169050610fd5826004611c67565b1b919091179080610fe581611c7e565b915050610fac565b509392505050565b60008061100160075490565b9050611011600780546001019055565b600081815260086020526040902083905561102c8482611510565b836001600160a01b0316817f5c82644b2ffc94e3f1c34c87757b27375692fdf4bf2389eb361bbe28bc2c8de58560405161106891815260200190565b60405180910390a39392505050565b600080611083836109af565b9050806001600160a01b0316846001600160a01b031614806110aa57506110aa8185610d6f565b806110ce5750836001600160a01b03166110c3846105b3565b6001600160a01b0316145b949350505050565b826001600160a01b03166110e9826109af565b6001600160a01b03161461110f5760405162461bcd60e51b815260040161064e90611c97565b6001600160a01b0382166111715760405162461bcd60e51b8152602060048201526024808201527f4552433732313a207472616e7366657220746f20746865207a65726f206164646044820152637265737360e01b606482015260840161064e565b826001600160a01b0316611184826109af565b6001600160a01b0316146111aa5760405162461bcd60e51b815260040161064e90611c97565b600081815260046020908152604080832080546001600160a01b03199081169091556001600160a01b0387811680865260038552838620805460001901905590871680865283862080546001019055868652600290945282852080549092168417909155905184937fddf252ad1be2c89b69c2b068fc378daa952ba7f163c4a11628f55a4df523b3ef91a4505050565b600680546001600160a01b038381166001600160a01b0319831681179093556040519116919082907f8be0079c531659141344cd1fd0a4f28419497f9722a3daafe3b4186f6b6457e090600090a35050565b816001600160a01b0316836001600160a01b0316036112ed5760405162461bcd60e51b815260206004820152601960248201527f4552433732313a20617070726f766520746f2063616c6c657200000000000000604482015260640161064e565b6001600160a01b03838116600081815260056020908152604080832094871680845294825291829020805460ff191686151590811790915591519182527f17307eab39ab6107e8899845ad3d59bd9653f200f220920489ca2b5937696c31910160405180910390a3505050565b6113658484846110d6565b6113718484848461167d565b610af55760405162461bcd60e51b815260040161064e90611cdc565b6060600061139a8361177e565b600101905060008167ffffffffffffffff8111156113ba576113ba611a54565b6040519080825280601f01601f1916602001820160405280156113e4576020820181803683370190505b5090508181016020015b600019016f181899199a1a9b1b9c1cb0b131b232b360811b600a86061a8153600a85049450846113ee57509392505050565b60408051426020808301919091524482840152606082018690526080820185905260a08083018590528351808403909101815260c0909201909252805191012060009081805b604081101561150657600061147c826004611c67565b88901c600f1690506000611491836004611c67565b88901c600f16905060006114a6846004611c67565b86901c600f1690506000816000036114c25750600f81166114de565b6114cd600283611d2e565b6000036114db5750826114de565b50815b6114e9856004611c67565b1b9490941793508291506114fe905081611c7e565b915050611466565b5095945050505050565b6001600160a01b0382166115665760405162461bcd60e51b815260206004820181905260248201527f4552433732313a206d696e7420746f20746865207a65726f2061646472657373604482015260640161064e565b61156f81610ed4565b156115bc5760405162461bcd60e51b815260206004820152601c60248201527f4552433732313a20746f6b656e20616c7265616479206d696e74656400000000604482015260640161064e565b6115c581610ed4565b156116125760405162461bcd60e51b815260206004820152601c60248201527f4552433732313a20746f6b656e20616c7265616479206d696e74656400000000604482015260640161064e565b6001600160a01b038216600081815260036020908152604080832080546001019055848352600290915280822080546001600160a01b0319168417905551839291907fddf252ad1be2c89b69c2b068fc378daa952ba7f163c4a11628f55a4df523b3ef908290a45050565b60006001600160a01b0384163b1561177357604051630a85bd0160e11b81526001600160a01b0385169063150b7a02906116c1903390899088908890600401611d50565b6020604051808303816000875af19250505080156116fc575060408051601f3d908101601f191682019092526116f991810190611d8d565b60015b611759573d80801561172a576040519150601f19603f3d011682016040523d82523d6000602084013e61172f565b606091505b5080516000036117515760405162461bcd60e51b815260040161064e90611cdc565b805181602001fd5b6001600160e01b031916630a85bd0160e11b1490506110ce565b506001949350505050565b60008072184f03e93ff9f4daa797ed6e38ed64bf6a1f0160401b83106117bd5772184f03e93ff9f4daa797ed6e38ed64bf6a1f0160401b830492506040015b6d04ee2d6d415b85acef810000000083106117e9576d04ee2d6d415b85acef8100000000830492506020015b662386f26fc10000831061180757662386f26fc10000830492506010015b6305f5e100831061181f576305f5e100830492506008015b612710831061183357612710830492506004015b60648310611845576064830492506002015b600a831061051b5760010192915050565b6040518061020001604052806010905b60608152602001906001900390816118665790505090565b6001600160e01b031981168114610e1357600080fd5b6000602082840312156118a657600080fd5b8135610b688161187e565b60005b838110156118cc5781810151838201526020016118b4565b50506000910152565b600081518084526118ed8160208601602086016118b1565b601f01601f19169290920160200192915050565b602081526000610b6860208301846118d5565b60006020828403121561192657600080fd5b5035919050565b80356001600160a01b038116811461194457600080fd5b919050565b6000806040838503121561195c57600080fd5b6119658361192d565b946020939093013593505050565b60006020828403121561198557600080fd5b610b688261192d565b6000806000606084860312156119a357600080fd5b6119ac8461192d565b92506119ba6020850161192d565b9150604084013590509250925092565b6020808252600090610220830183820185845b6010811015611a0c57601f198785030183526119fa8483516118d5565b935091840191908401906001016119dd565b50919695505050505050565b60008060408385031215611a2b57600080fd5b611a348361192d565b915060208301358015158114611a4957600080fd5b809150509250929050565b634e487b7160e01b600052604160045260246000fd5b60008060008060808587031215611a8057600080fd5b611a898561192d565b9350611a976020860161192d565b925060408501359150606085013567ffffffffffffffff80821115611abb57600080fd5b818701915087601f830112611acf57600080fd5b813581811115611ae157611ae1611a54565b604051601f8201601f19908116603f01168101908382118183101715611b0957611b09611a54565b816040528281528a6020848701011115611b2257600080fd5b82602086016020830137600060208483010152809550505050505092959194509250565b60008060408385031215611b5957600080fd5b50508035926020909101359150565b60008060408385031215611b7b57600080fd5b611b848361192d565b9150611b926020840161192d565b90509250929050565b600181811c90821680611baf57607f821691505b602082108103611bcf57634e487b7160e01b600052602260045260246000fd5b50919050565b6020808252602d908201527f4552433732313a2063616c6c6572206973206e6f7420746f6b656e206f776e6560408201526c1c881bdc88185c1c1c9bdd9959609a1b606082015260800190565b60008351611c348184602088016118b1565b835190830190611c488183602088016118b1565b01949350505050565b634e487b7160e01b600052601160045260246000fd5b808202811582820484141761051b5761051b611c51565b600060018201611c9057611c90611c51565b5060010190565b60208082526025908201527f4552433732313a207472616e736665722066726f6d20696e636f72726563742060408201526437bbb732b960d91b606082015260800190565b60208082526032908201527f4552433732313a207472616e7366657220746f206e6f6e20455243373231526560408201527131b2b4bb32b91034b6b83632b6b2b73a32b960711b606082015260800190565b600082611d4b57634e487b7160e01b600052601260045260246000fd5b500690565b6001600160a01b0385811682528416602082015260408101839052608060608201819052600090611d83908301846118d5565b9695505050505050565b600060208284031215611d9f57600080fd5b8151610b688161187e56fea2646970667358221220a5bb2cf13dc9dea1f92bef85e7fb71edd78620aa994906bfbf8475054464853964736f6c63430008130033","linkReferences":{}},"methodIdentifiers":{"approve(address,uint256)":"095ea7b3","balanceOf(address)":"70a08231","breed(uint256,uint256)":"d9ecad7b","breedingFee()":"c69cd09d","exists(uint256)":"4f558e79","genes(uint256)":"ab1aa1c5","getApproved(uint256)":"081812fc","getGene(uint256)":"0c557937","getPalette()":"3dda6452","isApprovedForAll(address,address)":"e985e9c5","name()":"06fdde03","owner()":"8da5cb5b","ownerMint(address)":"1e3bcc8e","ownerOf(uint256)":"6352211e","renounceOwnership()":"715018a6","safeTransferFrom(address,address,uint256)":"42842e0e","safeTransferFrom(address,address,uint256,bytes)":"b88d4fde","setApprovalForAll(address,bool)":"a22cb465","setBreedingFee(uint256)":"4574dea5","supportsInterface(bytes4)":"01ffc9a7","symbol()":"95d89b41","tokenURI(uint256)":"c87b56dd","totalSupply()":"18160ddd","transferFrom(address,address,uint256)":"23b872dd","transferOwnership(address)":"f2fde38b","withdraw()":"3ccfd60b"},"id":33}