{"abi":[{"type":"constructor","inputs":[{"name":"name","type":"string","internalType":"string"},{"name":"symbol","type":"string","internalType":"string"},{"name":"_maxSupply","type":"uint256","internalType":"uint256"},{"name":"_mintPrice","type":"uint256","internalType":"uint256"},{"name":"_maxMintPerAddress","type":"uint256","internalType":"uint256"},{"name":"_initialBaseURI","type":"string","internalType":"string"}],"stateMutability":"nonpayable"},{"type":"function","name":"addMultipleToWhitelist","inputs":[{"name":"accounts","type":"address[]","internalType":"address[]"}],"outputs":[],"stateMutability":"nonpayable"},{"type":"function","name":"addToWhitelist","inputs":[{"name":"account","type":"address","internalType":"address"}],"outputs":[],"stateMutability":"nonpayable"},{"type":"function","name":"approve","inputs":[{"name":"to","type":"address","internalType":"address"},{"name":"tokenId","type":"uint256","internalType":"uint256"}],"outputs":[],"stateMutability":"nonpayable"},{"type":"function","name":"balanceOf","inputs":[{"name":"owner","type":"address","internalType":"address"}],"outputs":[{"name":"","type":"uint256","internalType":"uint256"}],"stateMutability":"view"},{"type":"function","name":"batchMint","inputs":[{"name":"to","type":"address[]","internalType":"address[]"},{"name":"uris","type":"string[]","internalType":"string[]"}],"outputs":[],"stateMutability":"nonpayable"},{"type":"function","name":"exists","inputs":[{"name":"tokenId","type":"uint256","internalType":"uint256"}],"outputs":[{"name":"","type":"bool","internalType":"bool"}],"stateMutability":"view"},{"type":"function","name":"getApproved","inputs":[{"name":"tokenId","type":"uint256","internalType":"uint256"}],"outputs":[{"name":"","type":"address","internalType":"address"}],"stateMutability":"view"},{"type":"function","name":"isApprovedForAll","inputs":[{"name":"owner","type":"address","internalType":"address"},{"name":"operator","type":"address","internalType":"address"}],"outputs":[{"name":"","type":"bool","internalType":"bool"}],"stateMutability":"view"},{"type":"function","name":"maxMintPerAddress","inputs":[],"outputs":[{"name":"","type":"uint256","internalType":"uint256"}],"stateMutability":"view"},{"type":"function","name":"maxSupply","inputs":[],"outputs":[{"name":"","type":"uint256","internalType":"uint256"}],"stateMutability":"view"},{"type":"function","name":"mint","inputs":[{"name":"to","type":"address","internalType":"address"},{"name":"uri","type":"string","internalType":"string"}],"outputs":[],"stateMutability":"payable"},{"type":"function","name":"mintPrice","inputs":[],"outputs":[{"name":"","type":"uint256","internalType":"uint256"}],"stateMutability":"view"},{"type":"function","name":"mintedCount","inputs":[{"name":"","type":"address","internalType":"address"}],"outputs":[{"name":"","type":"uint256","internalType":"uint256"}],"stateMutability":"view"},{"type":"function","name":"name","inputs":[],"outputs":[{"name":"","type":"string","internalType":"string"}],"stateMutability":"view"},{"type":"function","name":"owner","inputs":[],"outputs":[{"name":"","type":"address","internalType":"address"}],"stateMutability":"view"},{"type":"function","name":"ownerMint","inputs":[{"name":"to","type":"address","internalType":"address"},{"name":"uri","type":"string","internalType":"string"}],"outputs":[],"stateMutability":"nonpayable"},{"type":"function","name":"ownerOf","inputs":[{"name":"tokenId","type":"uint256","internalType":"uint256"}],"outputs":[{"name":"","type":"address","internalType":"address"}],"stateMutability":"view"},{"type":"function","name":"pause","inputs":[],"outputs":[],"stateMutability":"nonpayable"},{"type":"function","name":"paused","inputs":[],"outputs":[{"name":"","type":"bool","internalType":"bool"}],"stateMutability":"view"},{"type":"function","name":"removeFromWhitelist","inputs":[{"name":"account","type":"address","internalType":"address"}],"outputs":[],"stateMutability":"nonpayable"},{"type":"function","name":"renounceOwnership","inputs":[],"outputs":[],"stateMutability":"nonpayable"},{"type":"function","name":"safeTransferFrom","inputs":[{"name":"from","type":"address","internalType":"address"},{"name":"to","type":"address","internalType":"address"},{"name":"tokenId","type":"uint256","internalType":"uint256"}],"outputs":[],"stateMutability":"nonpayable"},{"type":"function","name":"safeTransferFrom","inputs":[{"name":"from","type":"address","internalType":"address"},{"name":"to","type":"address","internalType":"address"},{"name":"tokenId","type":"uint256","internalType":"uint256"},{"name":"data","type":"bytes","internalType":"bytes"}],"outputs":[],"stateMutability":"nonpayable"},{"type":"function","name":"setApprovalForAll","inputs":[{"name":"operator","type":"address","internalType":"address"},{"name":"approved","type":"bool","internalType":"bool"}],"outputs":[],"stateMutability":"nonpayable"},{"type":"function","name":"setBaseURI","inputs":[{"name":"newBaseURI","type":"string","internalType":"string"}],"outputs":[],"stateMutability":"nonpayable"},{"type":"function","name":"setMaxMintPerAddress","inputs":[{"name":"newMax","type":"uint256","internalType":"uint256"}],"outputs":[],"stateMutability":"nonpayable"},{"type":"function","name":"setMintPrice","inputs":[{"name":"newPrice","type":"uint256","internalType":"uint256"}],"outputs":[],"stateMutability":"nonpayable"},{"type":"function","name":"supportsInterface","inputs":[{"name":"interfaceId","type":"bytes4","internalType":"bytes4"}],"outputs":[{"name":"","type":"bool","internalType":"bool"}],"stateMutability":"view"},{"type":"function","name":"symbol","inputs":[],"outputs":[{"name":"","type":"string","internalType":"string"}],"stateMutability":"view"},{"type":"function","name":"tokenByIndex","inputs":[{"name":"index","type":"uint256","internalType":"uint256"}],"outputs":[{"name":"","type":"uint256","internalType":"uint256"}],"stateMutability":"view"},{"type":"function","name":"tokenOfOwnerByIndex","inputs":[{"name":"owner","type":"address","internalType":"address"},{"name":"index","type":"uint256","internalType":"uint256"}],"outputs":[{"name":"","type":"uint256","internalType":"uint256"}],"stateMutability":"view"},{"type":"function","name":"tokenURI","inputs":[{"name":"tokenId","type":"uint256","internalType":"uint256"}],"outputs":[{"name":"","type":"string","internalType":"string"}],"stateMutability":"view"},{"type":"function","name":"tokensOfOwner","inputs":[{"name":"owner_","type":"address","internalType":"address"}],"outputs":[{"name":"","type":"uint256[]","internalType":"uint256[]"}],"stateMutability":"view"},{"type":"function","name":"totalSupply","inputs":[],"outputs":[{"name":"","type":"uint256","internalType":"uint256"}],"stateMutability":"view"},{"type":"function","name":"transferFrom","inputs":[{"name":"from","type":"address","internalType":"address"},{"name":"to","type":"address","internalType":"address"},{"name":"tokenId","type":"uint256","internalType":"uint256"}],"outputs":[],"stateMutability":"nonpayable"},{"type":"function","name":"transferOwnership","inputs":[{"name":"newOwner","type":"address","internalType":"address"}],"outputs":[],"stateMutability":"nonpayable"},{"type":"function","name":"unpause","inputs":[],"outputs":[],"stateMutability":"nonpayable"},{"type":"function","name":"whitelist","inputs":[{"name":"","type":"address","internalType":"address"}],"outputs":[{"name":"","type":"bool","internalType":"bool"}],"stateMutability":"view"},{"type":"function","name":"whitelistMint","inputs":[{"name":"to","type":"address","internalType":"address"},{"name":"uri","type":"string","internalType":"string"}],"outputs":[],"stateMutability":"payable"},{"type":"function","name":"withdraw","inputs":[],"outputs":[],"stateMutability":"nonpayable"},{"type":"event","name":"Approval","inputs":[{"name":"owner","type":"address","indexed":true,"internalType":"address"},{"name":"approved","type":"address","indexed":true,"internalType":"address"},{"name":"tokenId","type":"uint256","indexed":true,"internalType":"uint256"}],"anonymous":false},{"type":"event","name":"ApprovalForAll","inputs":[{"name":"owner","type":"address","indexed":true,"internalType":"address"},{"name":"operator","type":"address","indexed":true,"internalType":"address"},{"name":"approved","type":"bool","indexed":false,"internalType":"bool"}],"anonymous":false},{"type":"event","name":"BaseURIUpdated","inputs":[{"name":"newBaseURI","type":"string","indexed":false,"internalType":"string"}],"anonymous":false},{"type":"event","name":"BatchMetadataUpdate","inputs":[{"name":"_fromTokenId","type":"uint256","indexed":false,"internalType":"uint256"},{"name":"_toTokenId","type":"uint256","indexed":false,"internalType":"uint256"}],"anonymous":false},{"type":"event","name":"MetadataUpdate","inputs":[{"name":"_tokenId","type":"uint256","indexed":false,"internalType":"uint256"}],"anonymous":false},{"type":"event","name":"MintPriceUpdated","inputs":[{"name":"newPrice","type":"uint256","indexed":false,"internalType":"uint256"}],"anonymous":false},{"type":"event","name":"OwnershipTransferred","inputs":[{"name":"previousOwner","type":"address","indexed":true,"internalType":"address"},{"name":"newOwner","type":"address","indexed":true,"internalType":"address"}],"anonymous":false},{"type":"event","name":"Paused","inputs":[{"name":"account","type":"address","indexed":false,"internalType":"address"}],"anonymous":false},{"type":"event","name":"TokenMinted","inputs":[{"name":"to","type":"address","indexed":true,"internalType":"address"},{"name":"tokenId","type":"uint256","indexed":true,"internalType":"uint256"},{"name":"tokenURI","type":"string","indexed":false,"internalType":"string"}],"anonymous":false},{"type":"event","name":"Transfer","inputs":[{"name":"from","type":"address","indexed":true,"internalType":"address"},{"name":"to","type":"address","indexed":true,"internalType":"address"},{"name":"tokenId","type":"uint256","indexed":true,"internalType":"uint256"}],"anonymous":false},{"type":"event","name":"Unpaused","inputs":[{"name":"account","type":"address","indexed":false,"internalType":"address"}],"anonymous":false},{"type":"event","name":"WhitelistAdded","inputs":[{"name":"account","type":"address","indexed":true,"internalType":"address"}],"anonymous":false},{"type":"event","name":"WhitelistRemoved","inputs":[{"name":"account","type":"address","indexed":true,"internalType":"address"}],"anonymous":false}],"bytecode":{"object":"0x60806040523480156200001157600080fd5b5060405162003118380380620031188339810160408190526200003491620001b4565b85856000620000448382620002f0565b506001620000538282620002f0565b5050600b805460ff19169055506200006b3362000095565b600d849055600e8390556012829055600f620000888282620002f0565b50505050505050620003bc565b600b80546001600160a01b03838116610100818102610100600160a81b031985161790945560405193909204169182907f8be0079c531659141344cd1fd0a4f28419497f9722a3daafe3b4186f6b6457e090600090a35050565b634e487b7160e01b600052604160045260246000fd5b600082601f8301126200011757600080fd5b81516001600160401b0380821115620001345762000134620000ef565b604051601f8301601f19908116603f011681019082821181831017156200015f576200015f620000ef565b816040528381526020925086838588010111156200017c57600080fd5b600091505b83821015620001a0578582018301518183018401529082019062000181565b600093810190920192909252949350505050565b60008060008060008060c08789031215620001ce57600080fd5b86516001600160401b0380821115620001e657600080fd5b620001f48a838b0162000105565b975060208901519150808211156200020b57600080fd5b620002198a838b0162000105565b965060408901519550606089015194506080890151935060a08901519150808211156200024557600080fd5b506200025489828a0162000105565b9150509295509295509295565b600181811c908216806200027657607f821691505b6020821081036200029757634e487b7160e01b600052602260045260246000fd5b50919050565b601f821115620002eb57600081815260208120601f850160051c81016020861015620002c65750805b601f850160051c820191505b81811015620002e757828155600101620002d2565b5050505b505050565b81516001600160401b038111156200030c576200030c620000ef565b62000324816200031d845462000261565b846200029d565b602080601f8311600181146200035c5760008415620003435750858301515b600019600386901b1c1916600185901b178555620002e7565b600085815260208120601f198616915b828110156200038d578886015182559484019460019091019084016200036c565b5085821015620003ac5787850151600019600388901b60f8161c191681555b5050505050600190811b01905550565b612d4c80620003cc6000396000f3fe60806040526004361061023b5760003560e01c806370a082311161012e578063b88d4fde116100ab578063e43252d71161006f578063e43252d71461067d578063e985e9c51461069d578063f2fde38b146106e6578063f4a0a52814610706578063fddcb5ea1461072657600080fd5b8063b88d4fde14610601578063c87b56dd14610621578063cb72220a14610641578063d0def52114610654578063d5abeb011461066757600080fd5b80638ab1d681116100f25780638ab1d681146105595780638da5cb5b1461057957806395d89b411461059c5780639b19251a146105b1578063a22cb465146105e157600080fd5b806370a08231146104c2578063715018a6146104e25780638401f8d1146104f75780638456cb59146105175780638462151c1461052c57600080fd5b806341d5b803116101bc578063572849c411610180578063572849c41461043e5780635c975abb146104545780636352211e1461046c57806364ba144e1461048c5780636817c76c146104ac57600080fd5b806341d5b8031461039e57806342842e0e146103be5780634f558e79146103de5780634f6ccce7146103fe57806355f804b31461041e57600080fd5b80631e14d44b116102035780631e14d44b1461031457806323b872dd146103345780632f745c59146103545780633ccfd60b146103745780633f4ba83a1461038957600080fd5b806301ffc9a71461024057806306fdde0314610275578063081812fc14610297578063095ea7b3146102cf57806318160ddd146102f1575b600080fd5b34801561024c57600080fd5b5061026061025b36600461244b565b610753565b60405190151581526020015b60405180910390f35b34801561028157600080fd5b5061028a610764565b60405161026c91906124b8565b3480156102a357600080fd5b506102b76102b23660046124cb565b6107f6565b6040516001600160a01b03909116815260200161026c565b3480156102db57600080fd5b506102ef6102ea366004612500565b61081d565b005b3480156102fd57600080fd5b50610306610937565b60405190815260200161026c565b34801561032057600080fd5b506102ef61032f3660046124cb565b610947565b34801561034057600080fd5b506102ef61034f36600461252a565b610954565b34801561036057600080fd5b5061030661036f366004612500565b610985565b34801561038057600080fd5b506102ef610a1b565b34801561039557600080fd5b506102ef610b08565b3480156103aa57600080fd5b506102ef6103b9366004612625565b610b1a565b3480156103ca57600080fd5b506102ef6103d936600461252a565b610bbb565b3480156103ea57600080fd5b506102606103f93660046124cb565b610bd6565b34801561040a57600080fd5b506103066104193660046124cb565b610bf5565b34801561042a57600080fd5b506102ef610439366004612673565b610c88565b34801561044a57600080fd5b5061030660125481565b34801561046057600080fd5b50600b5460ff16610260565b34801561047857600080fd5b506102b76104873660046124cb565b610cd7565b34801561049857600080fd5b506102ef6104a736600461273e565b610d37565b3480156104b857600080fd5b50610306600e5481565b3480156104ce57600080fd5b506103066104dd366004612813565b610edd565b3480156104ee57600080fd5b506102ef610f63565b34801561050357600080fd5b506102ef61051236600461282e565b610f75565b34801561052357600080fd5b506102ef611041565b34801561053857600080fd5b5061054c610547366004612813565b611051565b60405161026c9190612863565b34801561056557600080fd5b506102ef610574366004612813565b6110f3565b34801561058557600080fd5b50600b5461010090046001600160a01b03166102b7565b3480156105a857600080fd5b5061028a611144565b3480156105bd57600080fd5b506102606105cc366004612813565b60106020526000908152604090205460ff1681565b3480156105ed57600080fd5b506102ef6105fc3660046128a7565b611153565b34801561060d57600080fd5b506102ef61061c3660046128e3565b61115e565b34801561062d57600080fd5b5061028a61063c3660046124cb565b611196565b6102ef61064f366004612625565b6111a1565b6102ef610662366004612625565b611272565b34801561067357600080fd5b50610306600d5481565b34801561068957600080fd5b506102ef610698366004612813565b61139d565b3480156106a957600080fd5b506102606106b836600461295f565b6001600160a01b03918216600090815260056020908152604080832093909416825291909152205460ff1690565b3480156106f257600080fd5b506102ef610701366004612813565b6113f1565b34801561071257600080fd5b506102ef6107213660046124cb565b61146a565b34801561073257600080fd5b50610306610741366004612813565b60116020526000908152604090205481565b600061075e826114a7565b92915050565b60606000805461077390612992565b80601f016020809104026020016040519081016040528092919081815260200182805461079f90612992565b80156107ec5780601f106107c1576101008083540402835291602001916107ec565b820191906000526020600020905b8154815290600101906020018083116107cf57829003601f168201915b5050505050905090565b6000610801826114cc565b506000908152600460205260409020546001600160a01b031690565b600061082882610cd7565b9050806001600160a01b0316836001600160a01b03160361089a5760405162461bcd60e51b815260206004820152602160248201527f4552433732313a20617070726f76616c20746f2063757272656e74206f776e656044820152603960f91b60648201526084015b60405180910390fd5b336001600160a01b03821614806108b657506108b681336106b8565b6109285760405162461bcd60e51b815260206004820152603d60248201527f4552433732313a20617070726f76652063616c6c6572206973206e6f7420746f60448201527f6b656e206f776e6572206f7220617070726f76656420666f7220616c6c0000006064820152608401610891565b610932838361152b565b505050565b6000610942600c5490565b905090565b61094f611599565b601255565b61095e33826115f9565b61097a5760405162461bcd60e51b8152600401610891906129cc565b610932838383611678565b600061099083610edd565b82106109f25760405162461bcd60e51b815260206004820152602b60248201527f455243373231456e756d657261626c653a206f776e657220696e646578206f7560448201526a74206f6620626f756e647360a81b6064820152608401610891565b506001600160a01b03919091166000908152600760209081526040808320938352929052205490565b610a23611599565b4780610a685760405162461bcd60e51b81526020600482015260146024820152734e6f2066756e647320746f20776974686472617760601b6044820152606401610891565b600b5460405160009161010090046001600160a01b03169083908381818185875af1925050503d8060008114610aba576040519150601f19603f3d011682016040523d82523d6000602084013e610abf565b606091505b5050905080610b045760405162461bcd60e51b815260206004820152601160248201527015da5d1a191c985dd85b0819985a5b1959607a1b6044820152606401610891565b5050565b610b10611599565b610b186117e9565b565b610b22611599565b600d54600c5410610b455760405162461bcd60e51b815260040161089190612a19565b6000610b50600c5490565b9050610b60600c80546001019055565b610b6a838261183b565b610b748183611855565b80836001600160a01b03167fdf92894dc4675a7333caa5903b69cf5d8e8ec0d3f361c88207b6688e525703bb84604051610bae91906124b8565b60405180910390a3505050565b6109328383836040518060200160405280600081525061115e565b6000818152600260205260408120546001600160a01b0316151561075e565b6000610c0060095490565b8210610c635760405162461bcd60e51b815260206004820152602c60248201527f455243373231456e756d657261626c653a20676c6f62616c20696e646578206f60448201526b7574206f6620626f756e647360a01b6064820152608401610891565b60098281548110610c7657610c76612a45565b90600052602060002001549050919050565b610c90611599565b600f610c9c8282612aa9565b507f6741b2fc379fad678116fe3d4d4b9a1a184ab53ba36b86ad0fa66340b1ab41ad81604051610ccc91906124b8565b60405180910390a150565b6000818152600260205260408120546001600160a01b03168061075e5760405162461bcd60e51b8152602060048201526018602482015277115490cdcc8c4e881a5b9d985b1a59081d1bdad95b88125160421b6044820152606401610891565b610d3f611599565b8051825114610d895760405162461bcd60e51b8152602060048201526016602482015275082e4e4c2f2e640d8cadccee8d040dad2e6dac2e8c6d60531b6044820152606401610891565b600d548251600c54610d9b9190612b7f565b1115610de95760405162461bcd60e51b815260206004820152601760248201527f576f756c6420657863656564206d617820737570706c790000000000000000006044820152606401610891565b60005b8251811015610932576000610e00600c5490565b9050610e10600c80546001019055565b610e33848381518110610e2557610e25612a45565b60200260200101518261183b565b610e5681848481518110610e4957610e49612a45565b6020026020010151611855565b80848381518110610e6957610e69612a45565b60200260200101516001600160a01b03167fdf92894dc4675a7333caa5903b69cf5d8e8ec0d3f361c88207b6688e525703bb858581518110610ead57610ead612a45565b6020026020010151604051610ec291906124b8565b60405180910390a35080610ed581612b92565b915050610dec565b60006001600160a01b038216610f475760405162461bcd60e51b815260206004820152602960248201527f4552433732313a2061646472657373207a65726f206973206e6f7420612076616044820152683634b21037bbb732b960b91b6064820152608401610891565b506001600160a01b031660009081526003602052604090205490565b610f6b611599565b610b186000611920565b610f7d611599565b60005b8151811015610b0457600160106000848481518110610fa157610fa1612a45565b60200260200101516001600160a01b03166001600160a01b0316815260200190815260200160002060006101000a81548160ff021916908315150217905550818181518110610ff257610ff2612a45565b60200260200101516001600160a01b03167f4790a4adb426ca2345bb5108f6e454eae852a7bf687544cd66a7270dff3a41d660405160405180910390a28061103981612b92565b915050610f80565b611049611599565b610b1861197a565b6060600061105e83610edd565b905060008167ffffffffffffffff81111561107b5761107b612566565b6040519080825280602002602001820160405280156110a4578160200160208202803683370190505b50905060005b828110156110eb576110bc8582610985565b8282815181106110ce576110ce612a45565b6020908102919091010152806110e381612b92565b9150506110aa565b509392505050565b6110fb611599565b6001600160a01b038116600081815260106020526040808220805460ff19169055517fde8cf212af7ce38b2840785a2768d97ff2dbf3c21b516961cec0061e134c2a1e9190a250565b60606001805461077390612992565b610b043383836119b7565b61116833836115f9565b6111845760405162461bcd60e51b8152600401610891906129cc565b61119084848484611a7d565b50505050565b606061075e82611ab0565b6111a9611bab565b3360009081526010602052604090205460ff166111fa5760405162461bcd60e51b815260206004820152600f60248201526e139bdd081dda1a5d195b1a5cdd1959608a1b6044820152606401610891565b600d54600c541061121d5760405162461bcd60e51b815260040161089190612a19565b6002600e5461122c9190612bab565b341015610b455760405162461bcd60e51b8152602060048201526014602482015273125b9cdd59999a58da595b9d081c185e5b595b9d60621b6044820152606401610891565b61127a611bab565b600d54600c541061129d5760405162461bcd60e51b815260040161089190612a19565b600e543410156112e65760405162461bcd60e51b8152602060048201526014602482015273125b9cdd59999a58da595b9d081c185e5b595b9d60621b6044820152606401610891565b6012546001600160a01b0383166000908152601160205260409020541061134f5760405162461bcd60e51b815260206004820152601d60248201527f4d6178206d696e742070657220616464726573732065786365656465640000006044820152606401610891565b600061135a600c5490565b905061136a600c80546001019055565b6001600160a01b038316600090815260116020526040812080549161138e83612b92565b9190505550610b6a838261183b565b6113a5611599565b6001600160a01b038116600081815260106020526040808220805460ff19166001179055517f4790a4adb426ca2345bb5108f6e454eae852a7bf687544cd66a7270dff3a41d69190a250565b6113f9611599565b6001600160a01b03811661145e5760405162461bcd60e51b815260206004820152602660248201527f4f776e61626c653a206e6577206f776e657220697320746865207a65726f206160448201526564647265737360d01b6064820152608401610891565b61146781611920565b50565b611472611599565b600e8190556040518181527f525b762709cc2a983aec5ccdfd807a061f993c91090b5bcd7da92ca254976aaa90602001610ccc565b60006001600160e01b0319821663780e9d6360e01b148061075e575061075e82611bf1565b6000818152600260205260409020546001600160a01b03166114675760405162461bcd60e51b8152602060048201526018602482015277115490cdcc8c4e881a5b9d985b1a59081d1bdad95b88125160421b6044820152606401610891565b600081815260046020526040902080546001600160a01b0319166001600160a01b038416908117909155819061156082610cd7565b6001600160a01b03167f8c5be1e5ebec7d5bd14f71427d1e84f3dd0314c0f7b2291e5b200ac8c7c3b92560405160405180910390a45050565b600b546001600160a01b03610100909104163314610b185760405162461bcd60e51b815260206004820181905260248201527f4f776e61626c653a2063616c6c6572206973206e6f7420746865206f776e65726044820152606401610891565b60008061160583610cd7565b9050806001600160a01b0316846001600160a01b0316148061164c57506001600160a01b0380821660009081526005602090815260408083209388168352929052205460ff165b806116705750836001600160a01b0316611665846107f6565b6001600160a01b0316145b949350505050565b826001600160a01b031661168b82610cd7565b6001600160a01b0316146116b15760405162461bcd60e51b815260040161089190612bcd565b6001600160a01b0382166117135760405162461bcd60e51b8152602060048201526024808201527f4552433732313a207472616e7366657220746f20746865207a65726f206164646044820152637265737360e01b6064820152608401610891565b6117208383836001611c16565b826001600160a01b031661173382610cd7565b6001600160a01b0316146117595760405162461bcd60e51b815260040161089190612bcd565b600081815260046020908152604080832080546001600160a01b03199081169091556001600160a01b0387811680865260038552838620805460001901905590871680865283862080546001019055868652600290945282852080549092168417909155905184937fddf252ad1be2c89b69c2b068fc378daa952ba7f163c4a11628f55a4df523b3ef91a4505050565b6117f1611c2a565b600b805460ff191690557f5db9ee0a495bf2e6ff9c91a7834c1ba4fdd244a5e8aa4e537bd38aeae4b073aa335b6040516001600160a01b03909116815260200160405180910390a1565b610b04828260405180602001604052806000815250611c73565b6000828152600260205260409020546001600160a01b03166118d05760405162461bcd60e51b815260206004820152602e60248201527f45524337323155524953746f726167653a2055524920736574206f66206e6f6e60448201526d32bc34b9ba32b73a103a37b5b2b760911b6064820152608401610891565b60008281526006602052604090206118e88282612aa9565b506040518281527ff8e1a15aba9398e019f0b49df1a4fde98ee17ae345cb5f6b5e2c27f5033e8ce79060200160405180910390a15050565b600b80546001600160a01b03838116610100818102610100600160a81b031985161790945560405193909204169182907f8be0079c531659141344cd1fd0a4f28419497f9722a3daafe3b4186f6b6457e090600090a35050565b611982611bab565b600b805460ff191660011790557f62e78cea01bee320cd4e420270b5ea74000d11b0c9f74754ebdbfc544b05a25861181e3390565b816001600160a01b0316836001600160a01b031603611a185760405162461bcd60e51b815260206004820152601960248201527f4552433732313a20617070726f766520746f2063616c6c6572000000000000006044820152606401610891565b6001600160a01b03838116600081815260056020908152604080832094871680845294825291829020805460ff191686151590811790915591519182527f17307eab39ab6107e8899845ad3d59bd9653f200f220920489ca2b5937696c319101610bae565b611a88848484611678565b611a9484848484611ca6565b6111905760405162461bcd60e51b815260040161089190612c12565b6060611abb826114cc565b60008281526006602052604081208054611ad490612992565b80601f0160208091040260200160405190810160405280929190818152602001828054611b0090612992565b8015611b4d5780601f10611b2257610100808354040283529160200191611b4d565b820191906000526020600020905b815481529060010190602001808311611b3057829003601f168201915b505050505090506000611b5e611da7565b90508051600003611b70575092915050565b815115611ba2578082604051602001611b8a929190612c64565b60405160208183030381529060405292505050919050565b61167084611db6565b600b5460ff1615610b185760405162461bcd60e51b815260206004820152601060248201526f14185d5cd8589b194e881c185d5cd95960821b6044820152606401610891565b60006001600160e01b03198216632483248360e11b148061075e575061075e82611e1d565b611c1e611bab565b61119084848484611e6d565b600b5460ff16610b185760405162461bcd60e51b815260206004820152601460248201527314185d5cd8589b194e881b9bdd081c185d5cd95960621b6044820152606401610891565b611c7d8383611fa1565b611c8a6000848484611ca6565b6109325760405162461bcd60e51b815260040161089190612c12565b60006001600160a01b0384163b15611d9c57604051630a85bd0160e11b81526001600160a01b0385169063150b7a0290611cea903390899088908890600401612c93565b6020604051808303816000875af1925050508015611d25575060408051601f3d908101601f19168201909252611d2291810190612cd0565b60015b611d82573d808015611d53576040519150601f19603f3d011682016040523d82523d6000602084013e611d58565b606091505b508051600003611d7a5760405162461bcd60e51b815260040161089190612c12565b805181602001fd5b6001600160e01b031916630a85bd0160e11b149050611670565b506001949350505050565b6060600f805461077390612992565b6060611dc1826114cc565b6000611dcb611da7565b90506000815111611deb5760405180602001604052806000815250611e16565b80611df58461213a565b604051602001611e06929190612c64565b6040516020818303038152906040525b9392505050565b60006001600160e01b031982166380ac58cd60e01b1480611e4e57506001600160e01b03198216635b5e139f60e01b145b8061075e57506301ffc9a760e01b6001600160e01b031983161461075e565b6001811115611edc5760405162461bcd60e51b815260206004820152603560248201527f455243373231456e756d657261626c653a20636f6e7365637574697665207472604482015274185b9cd9995c9cc81b9bdd081cdd5c1c1bdc9d1959605a1b6064820152608401610891565b816001600160a01b038516611f3857611f3381600980546000838152600a60205260408120829055600182018355919091527f6e1540171b6c0c960b71a7020d9f60077f6af931a8bbf590da0223dacf75c7af0155565b611f5b565b836001600160a01b0316856001600160a01b031614611f5b57611f5b85826121cd565b6001600160a01b038416611f7757611f728161226a565b611f9a565b846001600160a01b0316846001600160a01b031614611f9a57611f9a8482612319565b5050505050565b6001600160a01b038216611ff75760405162461bcd60e51b815260206004820181905260248201527f4552433732313a206d696e7420746f20746865207a65726f20616464726573736044820152606401610891565b6000818152600260205260409020546001600160a01b03161561205c5760405162461bcd60e51b815260206004820152601c60248201527f4552433732313a20746f6b656e20616c7265616479206d696e746564000000006044820152606401610891565b61206a600083836001611c16565b6000818152600260205260409020546001600160a01b0316156120cf5760405162461bcd60e51b815260206004820152601c60248201527f4552433732313a20746f6b656e20616c7265616479206d696e746564000000006044820152606401610891565b6001600160a01b038216600081815260036020908152604080832080546001019055848352600290915280822080546001600160a01b0319168417905551839291907fddf252ad1be2c89b69c2b068fc378daa952ba7f163c4a11628f55a4df523b3ef908290a45050565b606060006121478361235d565b600101905060008167ffffffffffffffff81111561216757612167612566565b6040519080825280601f01601f191660200182016040528015612191576020820181803683370190505b5090508181016020015b600019016f181899199a1a9b1b9c1cb0b131b232b360811b600a86061a8153600a850494508461219b57509392505050565b600060016121da84610edd565b6121e49190612ced565b600083815260086020526040902054909150808214612237576001600160a01b03841660009081526007602090815260408083208584528252808320548484528184208190558352600890915290208190555b5060009182526008602090815260408084208490556001600160a01b039094168352600781528383209183525290812055565b60095460009061227c90600190612ced565b6000838152600a6020526040812054600980549394509092849081106122a4576122a4612a45565b9060005260206000200154905080600983815481106122c5576122c5612a45565b6000918252602080832090910192909255828152600a909152604080822084905585825281205560098054806122fd576122fd612d00565b6001900381819060005260206000200160009055905550505050565b600061232483610edd565b6001600160a01b039093166000908152600760209081526040808320868452825280832085905593825260089052919091209190915550565b60008072184f03e93ff9f4daa797ed6e38ed64bf6a1f0160401b831061239c5772184f03e93ff9f4daa797ed6e38ed64bf6a1f0160401b830492506040015b6d04ee2d6d415b85acef810000000083106123c8576d04ee2d6d415b85acef8100000000830492506020015b662386f26fc1000083106123e657662386f26fc10000830492506010015b6305f5e10083106123fe576305f5e100830492506008015b612710831061241257612710830492506004015b60648310612424576064830492506002015b600a831061075e5760010192915050565b6001600160e01b03198116811461146757600080fd5b60006020828403121561245d57600080fd5b8135611e1681612435565b60005b8381101561248357818101518382015260200161246b565b50506000910152565b600081518084526124a4816020860160208601612468565b601f01601f19169290920160200192915050565b602081526000611e16602083018461248c565b6000602082840312156124dd57600080fd5b5035919050565b80356001600160a01b03811681146124fb57600080fd5b919050565b6000806040838503121561251357600080fd5b61251c836124e4565b946020939093013593505050565b60008060006060848603121561253f57600080fd5b612548846124e4565b9250612556602085016124e4565b9150604084013590509250925092565b634e487b7160e01b600052604160045260246000fd5b604051601f8201601f1916810167ffffffffffffffff811182821017156125a5576125a5612566565b604052919050565b600067ffffffffffffffff8311156125c7576125c7612566565b6125da601f8401601f191660200161257c565b90508281528383830111156125ee57600080fd5b828260208301376000602084830101529392505050565b600082601f83011261261657600080fd5b611e16838335602085016125ad565b6000806040838503121561263857600080fd5b612641836124e4565b9150602083013567ffffffffffffffff81111561265d57600080fd5b61266985828601612605565b9150509250929050565b60006020828403121561268557600080fd5b813567ffffffffffffffff81111561269c57600080fd5b61167084828501612605565b600067ffffffffffffffff8211156126c2576126c2612566565b5060051b60200190565b600082601f8301126126dd57600080fd5b813560206126f26126ed836126a8565b61257c565b82815260059290921b8401810191818101908684111561271157600080fd5b8286015b8481101561273357612726816124e4565b8352918301918301612715565b509695505050505050565b6000806040838503121561275157600080fd5b823567ffffffffffffffff8082111561276957600080fd5b612775868387016126cc565b935060209150818501358181111561278c57600080fd5b8501601f8101871361279d57600080fd5b80356127ab6126ed826126a8565b81815260059190911b820184019084810190898311156127ca57600080fd5b8584015b83811015612802578035868111156127e65760008081fd5b6127f48c8983890101612605565b8452509186019186016127ce565b508096505050505050509250929050565b60006020828403121561282557600080fd5b611e16826124e4565b60006020828403121561284057600080fd5b813567ffffffffffffffff81111561285757600080fd5b611670848285016126cc565b6020808252825182820181905260009190848201906040850190845b8181101561289b5783518352928401929184019160010161287f565b50909695505050505050565b600080604083850312156128ba57600080fd5b6128c3836124e4565b9150602083013580151581146128d857600080fd5b809150509250929050565b600080600080608085870312156128f957600080fd5b612902856124e4565b9350612910602086016124e4565b925060408501359150606085013567ffffffffffffffff81111561293357600080fd5b8501601f8101871361294457600080fd5b612953878235602084016125ad565b91505092959194509250565b6000806040838503121561297257600080fd5b61297b836124e4565b9150612989602084016124e4565b90509250929050565b600181811c908216806129a657607f821691505b6020821081036129c657634e487b7160e01b600052602260045260246000fd5b50919050565b6020808252602d908201527f4552433732313a2063616c6c6572206973206e6f7420746f6b656e206f776e6560408201526c1c881bdc88185c1c1c9bdd9959609a1b606082015260800190565b60208082526012908201527113585e081cdd5c1c1b1e481c995858da195960721b604082015260600190565b634e487b7160e01b600052603260045260246000fd5b601f82111561093257600081815260208120601f850160051c81016020861015612a825750805b601f850160051c820191505b81811015612aa157828155600101612a8e565b505050505050565b815167ffffffffffffffff811115612ac357612ac3612566565b612ad781612ad18454612992565b84612a5b565b602080601f831160018114612b0c5760008415612af45750858301515b600019600386901b1c1916600185901b178555612aa1565b600085815260208120601f198616915b82811015612b3b57888601518255948401946001909101908401612b1c565b5085821015612b595787850151600019600388901b60f8161c191681555b5050505050600190811b01905550565b634e487b7160e01b600052601160045260246000fd5b8082018082111561075e5761075e612b69565b600060018201612ba457612ba4612b69565b5060010190565b600082612bc857634e487b7160e01b600052601260045260246000fd5b500490565b60208082526025908201527f4552433732313a207472616e736665722066726f6d20696e636f72726563742060408201526437bbb732b960d91b606082015260800190565b60208082526032908201527f4552433732313a207472616e7366657220746f206e6f6e20455243373231526560408201527131b2b4bb32b91034b6b83632b6b2b73a32b960711b606082015260800190565b60008351612c76818460208801612468565b835190830190612c8a818360208801612468565b01949350505050565b6001600160a01b0385811682528416602082015260408101839052608060608201819052600090612cc69083018461248c565b9695505050505050565b600060208284031215612ce257600080fd5b8151611e1681612435565b8181038181111561075e5761075e612b69565b634e487b7160e01b600052603160045260246000fdfea2646970667358221220d43501c54ed7436c855ae86f901470b78529b38ad7bce4d07e18a283e1c17ff664736f6c63430008130033","linkReferences":{}},"methodIdentifiers":{"addMultipleToWhitelist(address[])":"8401f8d1","addToWhitelist(address)":"e43252d7","approve(address,uint256)":"095ea7b3","balanceOf(address)":"70a08231","batchMint(address[],string[])":"64ba144e","exists(uint256)":"4f558e79","getApproved(uint256)":"081812fc","isApprovedForAll(address,address)":"e985e9c5","maxMintPerAddress()":"572849c4","maxSupply()":"d5abeb01","mint(address,string)":"d0def521","mintPrice()":"6817c76c","mintedCount(address)":"fddcb5ea","name()":"06fdde03","owner()":"8da5cb5b","ownerMint(address,string)":"41d5b803","ownerOf(uint256)":"6352211e","pause()":"8456cb59","paused()":"5c975abb","removeFromWhitelist(address)":"8ab1d681","renounceOwnership()":"715018a6","safeTransferFrom(address,address,uint256)":"42842e0e","safeTransferFrom(address,address,uint256,bytes)":"b88d4fde","setApprovalForAll(address,bool)":"a22cb465","setBaseURI(string)":"55f804b3","setMaxMintPerAddress(uint256)":"1e14d44b","setMintPrice(uint256)":"f4a0a528","supportsInterface(bytes4)":"01ffc9a7","symbol()":"95d89b41","tokenByIndex(uint256)":"4f6ccce7","tokenOfOwnerByIndex(address,uint256)":"2f745c59","tokenURI(uint256)":"c87b56dd","tokensOfOwner(address)":"8462151c","totalSupply()":"18160ddd","transferFrom(address,address,uint256)":"23b872dd","transferOwnership(address)":"f2fde38b","unpause()":"3f4ba83a","whitelist(address)":"9b19251a","whitelistMint(address,string)":"cb72220a","withdraw()":"3ccfd60b"},"id":43}